S01600006D6F63325F61737369676E6D656E742E733139D5
S113000000180020D500000043010000FD0C000092
S113001000000000000000000000000000000000DC
S11300200000000000000000000000004701000084
S11300300000000000000000490100004B01000026
S11300404F010000570100005F010000670100003C
S11300506F010000770100007F01000087010000AC
S11300608F010000970100009F010000A70100001C
S1130070F10B0000B7010000BF010000C701000040
S1130080CF010000D7010000DF010000E7010000FC
S1130090EF010000F7010000350500000702000031
S11300A00F020000170200003509000027020000BB
S11300B02F020000370200003F0200004702000048
S11300C0E41A000080F8FF1F48000000C8F8FF1F72
S11300D01403000072B600F063FE0E4B07E01868CC
S11300E059681C000C349A6800F01AF823000A4A74
S11300F09342F4D306E018681C000834596800F0F1
S113010018F82300054A9342F5D362B601F023FCA4
S1130110FEE7C046C0000000CC000000D400000090
S113012010B5002302E010C810C104339342FAD37F
S113013010BD002302E0002204C004338B42FAD332
S11301407047FEE7FEE7FEE7FEE7FEE7FEE710B5D1
S1130150FFF7FCFF10BD10B5FFF7F8FF10BD10B599
S1130160FFF7F4FF10BD10B5FFF7F0FF10BD10B599
S1130170FFF7ECFF10BD10B5FFF7E8FF10BD10B599
S1130180FFF7E4FF10BD10B5FFF7E0FF10BD10B599
S1130190FFF7DCFF10BD10B5FFF7D8FF10BD10B599
S11301A0FFF7D4FF10BD10B5FFF7D0FF10BD10B599
S11301B000F0C0FD10BD10B500F0CEFD10BD10B5AF
S11301C000F0DCFD10BD10B5FFF7C0FF10BD10B589
S11301D0FFF7BCFF10BD10B5FFF7B8FF10BD10B599
S11301E0FFF7B4FF10BD10B5FFF7B0FF10BD10B599
S11301F0FFF7ACFF10BD10B5FFF7A8FF10BD10B599
S1130200FFF7A4FF10BD10B5FFF7A0FF10BD10B598
S1130210FFF79CFF10BD10B5FFF798FF10BD10B598
S1130220FFF794FF10BD10B5FFF790FF10BD10B598
S1130230FFF78CFF10BD10B5FFF788FF10BD10B598
S1130240FFF784FF10BD10B5FFF780FF10BDFFFF5F
S1130250FFFFFFFFFFFFFFFFFFFFFFFFFFFFFFFFAA
S1130260FFFFFFFFFFFFFFFFFFFFFFFFFFFFFFFF9A
S1130270FFFFFFFFFFFFFFFFFFFFFFFFFFFFFFFF8A
S1130280FFFFFFFFFFFFFFFFFFFFFFFFFFFFFFFF7A
S1130290FFFFFFFFFFFFFFFFFFFFFFFFFFFFFFFF6A
S11302A0FFFFFFFFFFFFFFFFFFFFFFFFFFFFFFFF5A
S11302B0FFFFFFFFFFFFFFFFFFFFFFFFFFFFFFFF4A
S11302C0FFFFFFFFFFFFFFFFFFFFFFFFFFFFFFFF3A
S11302D0FFFFFFFFFFFFFFFFFFFFFFFFFFFFFFFF2A
S11302E0FFFFFFFFFFFFFFFFFFFFFFFFFFFFFFFF1A
S11302F0FFFFFFFFFFFFFFFFFFFFFFFFFFFFFFFF0A
S1130300FFFFFFFFFFFFFFFFFFFFFFFFFFFFFFFFF9
S1130310FFFFFFFFFFFFFFFFFFFFFFFFFFFFFFFFE9
S1130320FFFFFFFFFFFFFFFFFFFFFFFFFFFFFFFFD9
S1130330FFFFFFFFFFFFFFFFFFFFFFFFFFFFFFFFC9
S1130340FFFFFFFFFFFFFFFFFFFFFFFFFFFFFFFFB9
S1130350FFFFFFFFFFFFFFFFFFFFFFFFFFFFFFFFA9
S1130360FFFFFFFFFFFFFFFFFFFFFFFFFFFFFFFF99
S1130370FFFFFFFFFFFFFFFFFFFFFFFFFFFFFFFF89
S1130380FFFFFFFFFFFFFFFFFFFFFFFFFFFFFFFF79
S1130390FFFFFFFFFFFFFFFFFFFFFFFFFFFFFFFF69
S11303A0FFFFFFFFFFFFFFFFFFFFFFFFFFFFFFFF59
S11303B0FFFFFFFFFFFFFFFFFFFFFFFFFFFFFFFF49
S11303C0FFFFFFFFFFFFFFFFFFFFFFFFFFFFFFFF39
S11303D0FFFFFFFFFFFFFFFFFFFFFFFFFFFFFFFF29
S11303E0FFFFFFFFFFFFFFFFFFFFFFFFFFFFFFFF19
S11303F0FFFFFFFFFFFFFFFFFFFFFFFFFFFFFFFF09
S1130400FFFFFFFFFFFFFFFFFFFFFFFFFEFFFFFFF9
S113041080B582B000AF02003960FB1D1A70FB1D6D
S11304201B780A2B03D0FB1D1B780D2B16D1134B05
S11304301B781A00124B002199543A68104B110092
S1130440180001F0EDF90D4B00221A7082239A0076
S11304500B4B0021180001F084FA0BE0074B1B78CA
S11304605A1CD1B2054A11701900054BFA1D1278B5
S11304705A54C046C046BD4602B080BDD4FBFF1FDF
S1130480C8F8FF1F80B582B000AF7860396072B6DB
S1130490C046C046264B1B78DBB25BB2002BF9DAB0
S11304A0234B1B78DBB21A0020231340202B07D0E8
S11304B01F4B1B78DBB21A0010231340102B02D100
S11304C01B4B30221A701A4B0622DA717B681A0C05
S11304D0174BD2B29A717B681A0A154BD2B25A7171
S11304E0134B7A68D2B21A71114B3A68D2B2DA72EB
S11304F03B681A0A0E4BD2B29A723B681A0C0C4B28
S1130500D2B25A723B681A0E094BD2B21A72084B15
S113051080221A70C046064B1B78DBB25BB2002BFC
S1130520F9DA62B6C046C046BD4602B080BDC046D8
S11305300000024080B500AF104B1B69012213403C
S11305400AD00F4B1B68002098470C4B1A690B4BC1
S113055001210A431A610EE0084B1B690222134071
S113056009D0074B1B6801209847044B1A69034BB9
S113057001210A431A61C046BD4680BD0070034094
S1130580D0FAFF1F80B582B000AF0200FB1D1A70C5
S1130590074B1A68FB1D1B785BB2012199400B00C5
S11305A01900034B0A431A60C046BD4602B080BD21
S11305B000E100E080B582B000AF0200FB1D1A70BC
S11305C0084AFB1D1B789B009A580648FB1D1B78A4
S11305D08021C9050A439B001A50C0461800BD4635
S11305E002B080BD0050064080B582B000AF02006A
S11305F0FB1D1A700748FB1D1A780649FB1D1B7862
S1130600920012589B005A50C0461800BD4602B0D2
S113061080BDC0460050064090B583B000AF0400D2
S113062008001100FB1D221C1A70BB1D021C1A704D
S11306307B1D0A1C1A70454AFB1D1B789B009A58A7
S11306404249FB1D1B78424802409B005A503F4AD6
S1130650FB1D1B789B009A583C48FB1D1B78C0214E
S113066089040A439B001A50BB1D1B78042B69D8CC
S11306709A00384BD3181B689F46374A374BD358D8
S11306803549374A1340354A8B50334A334BD25895
S11306907B1D1B781902E023DB000B402E4913431A
S11306A02E4A8B504EE02C4A81239B00D3582A4972
S11306B02B4A1A4081239B00CA50274A81239B005E
S11306C0D2587B1D1B781902E023DB000B40224922
S11306D01A4381239B00CA5034E01F4AC1239B0064
S11306E0D3581D491E4A1A40C1239B00CA501A4AB6
S11306F0C1239B00D2587B1D1B781902E023DB0029
S11307000B4015491A43C1239B00CA501AE0124AF0
S113071082235B00D3581049114A1A4082235B009C
S1130720CA500D4A82235B00D2587B1D1B781902E4
S1130730E023DB000B4008491A4382235B00CA50C4
S113074000E0C046C046BD4603B090BD0050064020
S1130750FFFFFFF8C81A000000400640040500002F
S1130760FFF8FFFF80B584B000AF3A60FB1D021CA8
S11307701A70BB1D0A1C1A700123FB60BB1D1A787A
S11307801F21002391425B41DBB21A00FB68134036
S1130790FB603B685A1E9341DBB21A00FB681340AE
S11307A0FB60FB68012B00D0B1E0FB1D1A785A4BAB
S11307B09200D358BB60BB1D1A78BB689200D35813
S11307C0BA1D127855491940BB689200D150BB1D1F
S11307D01A78BB689200D1583B681B781A04F0233E
S11307E01B031340BA1D12781943BB689200D15001
S11307F0BB1D1A78BB689200D358BA1D12784849B9
S11308001940BB689200D150BB1D1A78BB68920096
S1130810D1583B685B78DB031B041B0CBA1D1278B0
S11308201943BB689200D150BB1D1A78BB68920073
S1130830D358BA1D12783B491940BB689200D15075
S1130840BB1D1A78BB689200D1583B689B781A028A
S1130850E023DB001340BA1D12781943BB689200F1
S1130860D150BB1D1A78BB689200D358BA1D1278B8
S113087040218B431900BB689200D150BB1D1A78EC
S1130880BB689200D1583B68DB789B01402213403F
S1130890BA1D12781943BB689200D150BB1D1A7857
S11308A0BB689200D358BA1D127803218B431900F8
S11308B0BB689200D150BB1D1A78BB689200D15816
S11308C03B685B795B0002221340BA1D127819431E
S11308D0BB689200D150BB1D1A78BB689200D158F6
S11308E03B689B791A0001231340BA1D12781943FF
S11308F0BB689200D1503B68DA680B4B1A603B68C6
S1130900DA790A4B1A703B681A7A094B1A70FB6839
S11309101800BD4604B080BD80F8FF1FFFFFF0FF44
S1130920FF7FFFFFFFF8FFFFD4FAFF1FD6FBFF1F77
S1130930D5FBFF1F80B500AF0D4B1B68002B07D004
S11309400B4B1B680B4A10780B4A1278110098471E
S11309500A4BDA68094B0A490A40DA60074BDA683D
S1130960064B802149040A43DA60C046BD4680BD77
S1130970D4FAFF1FD6FBFF1FD5FBFF1F00C00440A6
S1130980FFFFFFFEF0B589B000AFF860B9607A6090
S1130990786801F069F8041CB86801F065F8031C74
S11309A0191C201C00F0ECFC031CBB61B86801F0AE
S11309B05BF8031C7B611F23FB1804221A704CE0B4
S11309C01F26BB191B78180001F042F8031C191CE0
S11309D0B86900F0D5FC031C1C257C19181C00F018
S11309E0F3FF0300238029007B181B88002B2ED0E3
S11309F07B181A8880239B019A4228D27B181B8873
S1130A00BA1912785343180001F022F8031CB9698B
S1130A10181C00F02DFD031C181C00F013FE02002E
S1130A200B001000190000F0B6FF04000D007869F7
S1130A3000F008FE02000B002000290000F06AFC10
S1130A40031E04D01E23FB18BA1912781A701F2132
S1130A507B181A787B1801321A701F23FB181B7835
S1130A60202BADD91E22BB181B78032B03D8BB182F
S1130A701B78072B06D8FB681B69802292021A4355
S1130A80FB681A61FB681B690E4A1A401E23FB1897
S1130A901B78013B1906F8235B050B401A43FB68DE
S1130AA01A61FB681B695B0B5A031C23FB181B8828
S1130AB0DB04DB0C1A43FB681A61C046BD4609B06F
S1130AC0F0BDC046FFFFFFE080B584B000AF020078
S1130AD0FB1D1A70FB1D1A780C4B9200D358FB6057
S1130AE0FB689B69802292031A43FB689A61FB6846
S1130AF09B698022D2021A43FB689A610C20FFF79B
S1130B0041FDC046BD4604B080BDC046A8F8FF1FE5
S1130B10B0B58CB000AF02003960FB1D1A70FB1D2C
S1130B201A78314B9200D358FB62FB1D1B786A3351
S1130B30DBB21800FFF758FDFB1D1B786A33D8B2EF
S1130B403B68197A3B685B7A1A00FFF765FDFB1D69
S1130B501B786A33DBB21800FFF72CFD1C243B1909
S1130B60180010231A00002100F0FBFE3B1902229A
S1130B709A700C257B19180010231A00002100F02C
S1130B80F0FE7B1902229A704A20FFF713FD7B19AD
S1130B901A0000210120FFF7E5FD3B191A0001218D
S1130BA00120FFF7DFFD3B6859683B681B7A1A0098
S1130BB00E4B9200D258FB6A1800FFF7E3FEFB6A63
S1130BC01A69FB6A1A61FB6A1A69FB6A1A61FB6A91
S1130BD09A69FB6A9A61FB6A9A69FB6A9A61C046E0
S1130BE0BD460CB0B0BDC046A8F8FF1F94F8FF1F67
S1130BF080B500AF0B4BDB69DAB20B4B1A700A4BB2
S1130C001B780A4A11001800FFF702FC084A094B36
S1130C101100180000F036FD074B01221A70C0467F
S1130C20BD4680BD00A00640D9FBFF1FD8FAFF1FB8
S1130C30B4F8FF1FE0FAFF1FC4F8FF1F90B585B09A
S1130C4000AF3B0018000C231A00002100F089FEBD
S1130C503B00E12252025A603B0003221A723B001D
S1130C6001225A723B0019000020FFF751FF0020B7
S1130C70FFF72AFF1D4B01221A701D4B1B78002B16
S1130C80FBD11C4B1B78303B012BF6D80F23FB18F0
S1130C9000221A7023E00F217B181A78164B920059
S1130CA0D358013315D0134B5B687A18127892002D
S1130CB098180C007B181A780F4B9200D35819001F
S1130CC0FFF7E0FB3B191A780B4B920001214942D4
S1130CD0D1500F217B181A787B1801321A700F2318
S1130CE0FB181B78032BD6D9C046C6E7D7FBFF1FDA
S1130CF0D8FBFF1FD8FAFF1FB4F8FF1F042071466A
S1130D00084202D0EFF3098001E0EFF30880816923
S1130D100A88074B9A4200D0FEE7023181610168DC
S1130D20012901D0002100E0202101607047C04664
S1130D30ABBE000080B500AF044B1A68044B1B68BF
S1130D40044819009047C046BD4680BD10FBFF1FF4
S1130D5004FBFF1F00A0064080B500AF044B5A6897
S1130D60044B5B68044819009047C046BD4680BDEB
S1130D7010FBFF1F04FBFF1F00B0064080B500AF4F
S1130D80044B9A68044B9B68044819009047C0467A
S1130D90BD4680BD10FBFF1F04FBFF1F00C00640C3
S1130DA080B500AF104B1A6880239B01134003D019
S1130DB00D4B0E4A5A6005E00B4B0D4A5A600A4B24
S1130DC00C4A5A60084B0C4A9A60074B1B68A022D5
S1130DD093431A00044B20210A431A6000F0B6FD25
S1130DE0C046BD4680BDC0460020054020C528D968
S1130DF020C5000028D90000FFFF0000F0B5C56839
S1130E0004004769066989B0AB0720D02B0716D4C4
S1130E1000F022F8380000F042FE2B0502D5300025
S1130E2000F0A3FD0B4BAD0DAD059D4207D1202273
S1130E306846216A00F042FE684600F0BCFD3C2290
S1130E400021200000F08DFD002009B0F0BD01203C
S1130E504042FAE7000080ADF8B5002812D000F057
S1130E6069F905002800F8BD38006043084BC01834
S1130E7000F060F9002801D001256D420134A6423A
S1130E80F2DCEFE7034B040005003C271E68F6E79D
S1130E9020FBFF1FDC1A0000F7B54369C668019305
S1130EA0364B04000D0000921E420BD0019800F056
S1130EB0FCFD071E06D1009B012B06D0022B2DD072
S1130EC0002B06D002273800FEBD200000F05AF89F
S1130ED02D18002DF6DBB30404D52368E26A9A4288
S1130EE000D2E362A369AB420EDCE16A22688A4263
S1130EF000D20A002169D0180091401AA84203DBED
S1130F00206B1918A94228DC20231E430023A56264
S1130F10A36063601A4B1E40E660D4E7019800F0BA
S1130F20C1FDE268002804DA802313430127E3604B
S1130F30C9E7E16A2368994200D90B00A1695B18EB
S1130F4021695B1A920603D5A26A934200DA130060
S1130F50834200DA0300ED18BBE7EB1AB50701D5AD
S1130F60181AA060F00703D50099521A9A1A626001
S1130F70009AD118202321609E43CBE70300100080
S1130F80BFCFF7FFC16802008B0705D121220120E2
S1130F900E4B40421A60704720230B4009030AD5C8
S1130FA0002B02D0806A0138F5E793690068C01805
S1130FB01369C01AF7E7002B01D0806AEBE70368D6
S1130FC0816900695B18181AE5E7C0461CFBFF1F1E
S1130FD070B5184C18492200002000F0CFF8802387
S1130FE080225B0000212000D20000F02FF8134C77
S1130FF0134D22002900012000F0C0F88023802234
S11310005B0000212000D20000F020F80D4B1B688B
S1131010022B0DDD0C4C29002200022000F0AEF85A
S113102080238022002120005B00D20000F00EF813
S113103070BDC04620FBFF1FE01A00005CFBFF1FD1
S1131040E21A0000DC1A000098FBFF1FF0B5C56827
S113105004000120AE070CD080208000824213D00F
S11310608020C000824205D08020400082420BD004
S1131070FF38F0BD210001232431154300202161F4
S11310802160E361E560F4E7024F5E1E0120BE4289
S1131090F3D9EEE7FEFFFF000300032110B51A00A9
S11310A00B4219D1114C1368114959189943214223
S11310B019D0DCB2511C002C0BD0FF242402911C4B
S11310C0234206D0FF2109040B40591E8B41D3183B
S11310D0D91C0130081A05E001335C1E2478002C69
S11310E0DDD1101A10BD0432DDE7C0468080808057
S11310F0FFFEFEFE2022C36810B59343C3608269DD
S1131100836A04009A420CD000F072F8E268074B3C
S11311101A4010231343E360A36AA3612369E362C3
S11311202360E368024A1340E36010BDEFCFFFFF82
S1131130BFBFFFFFC36870B503221E000400164042
S1131140134211D09B0611D5856AFFF7D3FFE368DC
S1131150094A20001340E36000F04AF80022060028
S113116029002000FFF798FE300070BD83690568F0
S1131170ED180369ED1AEAE7FFCFFFFFF7B50D009D
S1131180019010001400FFF739FE2B78722B1CD04D
S1131190772B1DD0612B26D1144A593B0220691CA0
S11311A0032784460426012508782B2813D06228B7
S11311B016D0E260019A62611B0704D50222002165
S11311C02000FFF769FE2000FEBD00230122E5E7B1
S11311D004230222E2E760463A4303430131E3E792
S11311E032432B43FAE70024EDE7C04602800000B7
S11311F070B50400134AE36805691A400168C06ABF
S1131200E26082221A40022A02D00120404270BDCC
S1131210DB030CD5814200D201008D4209D10023A9
S1131220094AA360E368E56213402560E360002097
S1131230EDE722002800491B00F008F80028EED052
S1131240E3E7C046FFFFF7FFFFFFFEFFF7B5D568F2
S11312500F00140056690190EB0205D510233000ED
S11312601D4300F01FFCA061104B1D420FD0300045
S1131270A16900F020FC002806DA80230120E2683E
S113128040421343E3600FE0094B1D40E5603A0020
S11312903000019900F015FC4300A2695B08FB1AB9
S11312A0D318A3610028E8D1FEBDC0461000020097
S11312B0EFFFFDFFF7B50F0019000600144839438E
S11312C084460DD400205900614508D801309F425E
S11312D005D300209F4202D1964280414042FEBD88
S11312E07900002001916145F9D859006145F6D88B
S11312F00198314311430143081EF0D001209F425D
S1131300EDD800209F42EAD1B24292415042E6E732
S11313100000E0FFF0B585B0009001911D00019937
S1131320009B14009C460B00144E03942B430ED4D4
S113133000206B00B34208D80130A94205D3002035
S1131340A94202D162469442404105B0F0BD019BDE
S113135000205F00B742F8D86B00B342F5D80130E3
S1131360A942F2D802D1039A9445EED2009A1343CB
S113137023433B4358425841E7E7C0460000E0FF9F
S1131380021CF0B5D50D081C2C00FF2113000C40E5
S113139043400D4212D15400FF2541002D06A942BD
S11313A01AD8FF261043F605304215D0D80FC007CF
S11313B016424CD0A94256D0304348E0FF2C06D008
S11313C0C60D35000D400E4201D0FF2D06D1FF2180
S11313D0540009068C42DFD9244838E080211202E7
S11313E00002C905520840080A4301430139641B3D
S11313F08A422DDA7D34D80F80233F261A25C00176
S11314001B045200571A00D43A005200571A00D451
S11314103A005200571A00D43A005200571A00D426
S11314203A005200571A00D43A005200571A00D416
S11314303A0097063843E841B2431842E1D05200DB
S11314408A4200DB0130FD2C05D8E4052018F0BDEC
S113145052107E34CFE7C00FC007002CF7DBFF2308
S1131460DB051843F3E78C42B6D0F0E70000C07FF9
S11314700A00F8B5424003000E00002A05DA802372
S11314801B06C91800F086F8F8BD814205D98023EF
S11314901B06D618030073404E40DA0DF40DD0B28B
S11314A0171BFF2803D15A026AD03848ECE7874259
S11314B003D10028E8D01800E6E7802518022D069D
S11314C03602284335432900F940401A11D5304BE0
S11314D0C018010AD3055B18000601D0181CD3E715
S11314E02034A41AA540581E002DCDD101229343C7
S11314F0E1E74100460017D5FE2680310812D305E6
S11315001B181640090601D0002EE7D12034A41A76
S1131510A540581E002D02D1012293431800002E2D
S1131520B2D1C00FC007AFE700292CD08025D40565
S11315306D04A9421BD3090A80204003814201D2D1
S11315400901043A8020C003814201D28900023A91
S113155080200004814201D24900013A023AD205B6
S113156054405018002C00DB8EE7D80FDAE78025B2
S11315706D02A94201D3083ADEE74102103ADBE7E3
S1131580002FABD191E700207EE7C0460000C07F6A
S113159080000080F8B5040002000B004C4005D523
S11315A080231B06C918FFF763FFF8BD814201D8E9
S11315B003000A00DD0DFF272800D10D6E1A384004
S11315C0B84203D15A0205D01C48EEE7864203D143
S11315D0002E30D0181CE8E78024120224061B02D7
S11315E0234314432200F2409E18B2420DD8144BF8
S11315F0E805F218130AC0181206D6D12031491B87
S11316008C40D2D101329043CFE70136681CFF36BB
S1131610C305720AD2183840F60503D0FF2801D05A
S1131620101CC2E72031491B8C4001D101218A439F
S1131630FF28CFD0F4E7DB0FDB07CBE70000C07F48
S11316408000008030B5C110FF240D002405254022
S113165021420AD0E023DB0542070B43A54209D00F
S1131660C82410002406191930BDC90FCB07002067
S11316701900F9E719030A43F9D0014BF7E7C0460B
S11316800000F87F80B584B000AF786039607B6873
S1131690002B5AD03B68002B57D00023FB6050E04E
S11316A0FB689B003A68D31800221A60FB689B0011
S11316B03A68D3181968FB689B001A007B689B186A
S11316C01B781A06FB689B003868C3180A431A6023
S11316D0FB689B003A68D3181968FB689B000133C8
S11316E07A68D3181B781A04FB689B003868C318FF
S11316F00A431A60FB689B003A68D3181968FB68B0
S11317009B0002337A68D3181B781A02FB689B008B
S11317103868C3180A431A60FB689B003A68D318F8
S11317201A68FB689B0003337968CB181B78180090
S1131730FB689B003968CB1802431A60FB680133CD
S1131740FB60FB68032BABDD00E0C046BD4604B084
S113175080BD80B586B000AF78601723FB180022E7
S11317601A7000233B6151E03B697A68D2180F215B
S11317707B1812781A7017203B183A181278120145
S11317801A707B181B782F2B10D97B181B78392BD8
S11317900CD87B181B78303BDBB25AB23B181B7851
S11317A05BB213435AB23B181A702CE00F22BB18D9
S11317B01B78402B11D9BB181B78462B0DD8BB18AE
S11317C01B78373BDBB25AB217217B181B785BB20C
S11317D013435AB27B181A7015E00F22BB181B78FA
S11317E0602B10D9BB181B78662B0CD8BB181B7840
S11317F0573BDBB25AB217217B181B785BB21343F9
S11318005AB27B181A703B6901333B613B69012B67
S1131810AADD1723FB181B781800BD4606B080BD4F
S113182090B589B000AF786039607B681B78532B22
S113183002D001235B4285E07B6801331A783B6860
S11318401A707B6802331800FFF783FF03001A0045
S11318503B685A700023FB613B681B78332B0ED026
S113186010DC312B02DC302B03DA0BE0322B03D0FB
S113187008E00423FB6108E00623FB6105E008237C
S1131880FB6102E001235B425CE03B6800225A609A
S11318900023BB6111E03B685B681C02BB69043335
S11318A07A68D3181800FFF754FF030022001A4384
S11318B03B685A60BB690233BB61BA69FB699A42EF
S11318C0E9DBFB6904333B613B685B781A00FB6925
S11318D0002B00DA01335B105B42D318013BFB6041
S11318E0FB68202B02DD01235B422BE000237B619C
S11318F014E07B695B001A003B69D3187A68D3183B
S11319001800FFF726FF030019003A687B69D31813
S113191008330A1C1A707B6901337B617A69FB689E
S11319209A42E6DBFB685B001A003B69D3187A68CD
S1131930D3181800FFF70DFF030019003B68282295
S1131940995400231800BD4609B090BD80B500AF7E
S1131950C046BD4680BD10B5FFF73AFBFFF76EF9F0
S113196010BD10B500F086F810BD10B5002811D0D8
S113197080210C38490501608268002A0AD0136866
S11319808B4207D14368546803331B19436093683F
S11319908360F1E710BD70B50022002304000D0040
S11319A0FFF788FC002803D0802109066B181D006E
S11319B02900200070BD10B50400FFF76DFB010085
S11319C0200000F075F810BD9E22C10D031C521AB0
S11319D005D40302802000061843D0407047FE2936
S11319E003D9420200208242F8D1D80F0138F5E72A
S11319F000282BD0030C15D10004030E16D10002CD
S1131A00030F17D10001830F18D18000002819DBC0
S1131A104000803002125218000601D101239A437B
S1131A20101C704780231B05C918E6E78023DB04DC
S1131A30C918E5E780239B04C918E4E780235B0405
S1131A40C918E3E780231B04C918E2E70020E8E78C
S1131A50C30F10B5D907002B00D040428023DB050B
S1131A60C918FFF7C5FF10BD802110B5C905FFF7E0
S1131A70BFFF10BD8446043A09D3830707D1090682
S1131A800B0A19430B0C1943043A02C0FCD204326A
S1131A9003D001700130013AFBD160467047012048
S1131AA04042704701204042704701204042704745
S1131AB001204042704701204042704701204042CB
S1131AC0704710007047FFFF420700007A060000CD
S1131AD0A6060000DA0600000E070000030000005E
S1071AE07200770015
S1131AE40090044000A0044000B0044000C004403E
S1131AF400D00440000000000000000000127A003E
S1131B04006CDC020000000000A0064000B00640A7
S1131B1400C00640FFFFFFFF0000000000000000BB
S10B1B240000000001FFFFFFB7
S90300D527
